:020000040800F2
:1030000060060020B1310008D7330008CF33000834
:10301000D33300086B3200084D3500080000000073
:10302000000000000000000000000000FD33000868
:103030006F32000800000000D9330008E9340008AE
:10304000CB310008CB310008CB310008CB31000870
:10305000CB310008CB310008CB310008CB31000860
:10306000CB310008CB310008CB310008CB31000850
:10307000CB310008CB310008CB310008CB31000840
:10308000CB310008CB310008CB310008CB31000830
:10309000CB310008CB310008CB310008CB31000820
:1030A000CB310008CB310008CB310008CB31000810
:1030B000CB310008CB310008CB310008CB31000800
:1030C000CB310008CB310008CB310008CB310008F0
:1030D000CB310008CB310008CB310008CB310008E0
:1030E000CB310008CB310008CB310008CB310008D0
:1030F000CB310008CB310008CB310008CB310008C0
:10310000CB310008CB310008CB310008CB310008AF
:10311000CB310008CB310008CB310008CB3100089F
:10312000CB310008CB310008CB310008CB3100088F
:1031300000F002F800F02CF80AA090E8000C82449D
:103140008344AAF10107DA4501D100F021F8AFF27A
:10315000090EBAE80F0013F0010F18BFFB1A43F075
:10316000010318471804000028040000002300246D
:1031700000250026103A28BF78C1FBD8520728BF87
:1031800030C148BF0B6070471FB51FBD10B510BDE3
:1031900000F031F81146FFF7F7FF00F0D9F900F021
:1031A0004FF803B4FFF7F2FF03BC00F057F800003C
:1031B0000948804709480047FEE7FEE7FEE7FEE7CB
:1031C000FEE7FEE7FEE7FEE7FEE7FEE70448054907
:1031D000054A064B70470000ED3400083131000805
:1031E00060000020600600206002002060020020D5
:1031F000704770477047754600F02CF8AE460500E2
:103200006946534620F00700854618B020B5FFF701
:10321000DDFFBDE820404FF000064FF000074FF003
:1032200000084FF0000B21F00701AC46ACE8C009E4
:10323000ACE8C009ACE8C009ACE8C0098D467047ED
:1032400010B50446AFF300802046BDE81040FFF7FC
:10325000A8BF000000487047000000200149182066
:10326000ABBEFEE726000200704700BFFEE77047D6
:1032700000E0401E0028FCD17047000008B5012185
:10328000102000F0ABF88020ADF8000003208DF88E
:10329000020010208DF803006946044800F008F889
:1032A0008021024800F08FF808BD000000100140A6
:1032B0002DE9F041024600250026002000230024CD
:1032C000002791F803C00CF00F0591F803C00CF033
:1032D000100CBCF1000F03D091F802C04CEA0505B8
:1032E00091F800C0BCF1000F31D0146800202BE031
:1032F0004FF0010C0CFA00F3B1F800C00CEA030621
:103300009E4220D183004FF00F0C0CFA03F7BC4310
:1033100005FA03FC4CEA040491F803C0BCF1280F41
:1033200006D14FF0010C0CFA00FCC2F814C00AE000
:1033300091F803C0BCF1480F05D14FF0010C0CFA15
:1033400000FCC2F810C0401C0828D1D31460B1F8AA
:1033500000C0BCF1FF0F34DD546800202EE000F106
:10336000080C4FF0010808FA0CF3B1F800C00CEAA1
:1033700003069E4221D183004FF00F0C0CFA03F795
:10338000BC4305FA03FC4CEA040491F803C0BCF109
:10339000280F05D100F1080C08FA0CF8C2F81480C7
:1033A00091F803C0BCF1480F07D100F1080C4FF0B1
:1033B000010808FA0CF8C2F81080401C0828CED387
:1033C0005460BDE8F081416170470161704700BF02
:1033D000FEE700BFFEE770477047000029B1064ACC
:1033E00092690243044B9A6104E0034A9269824362
:1033F000014B9A617047000000100240704710B501
:1034000000F002F810BD00000CB500200190009003
:103410003348006840F480303149086000BF3048CC
:10342000006800F4003000900198401C0190009862
:1034300018B90198B0F5A06FF1D12948006800F4DF
:10344000003010B10120009001E0002000900098B1
:10345000012843D12348006840F01000214908604A
:103460000846006820F0030008600846006840F045
:10347000020008601A4840681949486008464068D8
:1034800048600846406840F48060486008464068EC
:1034900020F47C1048600846406840F4E81048601A
:1034A0000846006840F08070086000BF0C48006863
:1034B00000F000700028F9D00948406820F00300AF
:1034C000074948600846406840F00200486000BF75
:1034D0000348406800F00C000828F9D10CBD00003A
:1034E00000100240002002407047000010B5124852
:1034F000006840F0010010490860084640680F4924
:1035000008400D494860084600680D4908400A49CE
:1035100008600846006820F480200860084640687B
:1035200020F4FE0048604FF41F008860FFF767FF3B
:1035300004480549086010BD001002400000FFF873
:10354000FFFFF6FE0030000808ED00E000BFFEE7D8
:10355000FFF794FE0DE00748FFF78AFE802106483A
:10356000FFF733FF0348FFF783FE80210248FFF790
:103570002AFFF0E7FFFF0F00001001408C35000824
:0C35800000000020600600006C31000814
:04000005080031318D
:00000001FF
