:020000040800F2
:10000000B80B0020CD010008D5010008D701000879
:10001000D9010008DB010008DD0100080000000034
:10002000000000000000000000000000DF010008E8
:10003000E101000800000000E3010008E5010008FC
:10004000E7010008E7010008E7010008E7010008F0
:10005000E7010008E7010008E7010008E7010008E0
:10006000E7010008E7010008E7010008E7010008D0
:10007000E7010008E7010008E7010008E7010008C0
:10008000E7010008E7010008E7010008E7010008B0
:10009000E7010008E7010008E7010008E7010008A0
:1000A000E7010008E7010008E7010008E701000890
:1000B000B5100008E7010008E7010008E7010008A3
:1000C000E7010008E7010008E7010008E701000870
:1000D000E7010008E7010008E7010008E701000860
:1000E000E7010008E7010008E7010008E701000850
:1000F000E7010008E7010008E7010008E701000840
:10010000E7010008E7010008E7010008E70100082F
:10011000E7010008E7010008E7010008E70100081F
:10012000E7010008E7010008E7010008E70100080F
:1001300000F002F800F03AF80AA090E8000C8244BF
:100140008344AAF10107DA4501D100F02FF8AFF29C
:10015000090EBAE80F0013F0010F18BFFB1A43F0A5
:10016000010318470418000024180000103A24BFA7
:1001700078C878C1FAD8520724BF30C830C144BF0C
:1001800004680C607047000000230024002500264E
:10019000103A28BF78C1FBD8520728BF30C148BFEA
:1001A0000B6070471FB51FBD10B510BD00F0A8F85B
:1001B0001146FFF7F7FF01F02FFB00F0C6F803B47C
:1001C000FFF7F2FF03BC00F0CDF8000009488047BC
:1001D00009480047FEE7FEE7FEE7FEE7FEE7FEE729
:1001E000FEE7FEE7FEE7FEE704480549054A064B41
:1001F000704700005510000831010008B8050020C4
:10020000B80B0020B8070020B8070020032A40F2EE
:10021000308010F0030C00F0158011F8013BBCF1A8
:10022000020F624498BF11F801CB00F8013B38BFC0
:1002300011F8013BA2F1040298BF00F801CB38BFCE
:1002400000F8013B11F0030300F02880083AC0F0E9
:10025000088051F8043B083A51F804CBA0E8081094
:10026000F5E7121D5CBF51F8043B40F8043BAFF3C7
:100270000080D20724BF11F8013B11F801CB48BF21
:1002800011F8012B24BF00F8013B00F801CB48BF57
:1002900000F8012B704770477047704710B5203A3F
:1002A000C0F00B80B1E81850203AA0E81850B1E82F
:1002B0001850A0E81850BFF4F5AF5FEA027C24BFE5
:1002C000B1E81850A0E8185044BF18C918C0BDE8DC
:1002D00010405FEA827C24BF51F8043B40F8043BA5
:1002E00008BF7047D20728BF31F8023B48BF11F85A
:1002F000012B28BF20F8023B48BF00F8012B7047B4
:10030000754600F02BF8AE4605006946534620F0CE
:100310000700854618B020B5FFF766FFBDE820400E
:100320004FF000064FF000074FF000084FF0000BB1
:1003300021F00701AC46ACE8C009ACE8C009ACE864
:10034000C009ACE8C0098D46704710B50446AFF34C
:1003500000802046BDE81040FFF731BF00487047DD
:100360005405002001491820ABBEFEE7260002001C
:10037000704710B500220121880700F0CCFF002152
:100380004FF0804000F0B5FE10BD1FB54FF47A74F9
:100390000121084600F04EFBE00600F0B7FE002009
:1003A000ADF80200ADF80600601EADF8040047206D
:1003B000ADF800006946E00600F0B8FF1C208DF89B
:1003C0000C000A208DF80D0000208DF80E00012091
:1003D0008DF80F0003A800F0F5FA0021E00600F008
:1003E000A3FF01221146900700F095FF0121880725
:1003F00000F07FFE1FBD000030B5044604254FF419
:10040000302000F08DF80546042D17D10C48006906
:1004100040F002000A49086108464461006940F062
:10042000400008614FF4302000F07AF80546044897
:10043000006941F6FD71084001490861284630BD58
:100440000020024004200B49C96801F0010109B1F4
:1004500001200EE00749C96801F0040109B102203A
:1004600007E00449C96801F0100109B1032000E068
:1004700004207047002002400148006A70470000D5
:100480000020024001B500200099C1F30A021AB110
:10049000012202EBD12000E0C80A08BD78B506466B
:1004A0000C46042500200090E80200F039F80546CB
:1004B000042D24D11348006940F00100114908615E
:1004C0003480E80200F02CF80546042D10D1B01C51
:1004D0000090200C00990880E80200F021F8054601
:1004E0000848006941F6FE7108400649086106E0C7
:1004F0000448006941F6FE71084002490861284637
:1005000078BD0000002002400248034948600348CB
:10051000486070472301674500200240AB89EFCD5A
:1005200000B502460423FFF78DFF034603E0FFF703
:1005300089FF0346521E012B01D1002AF7D102B9CF
:100540000523184600BD000008B50121102000F069
:1005500091FA8020ADF8000003208DF802001020F1
:100560008DF803006946174800F030F880211548DF
:1005700000F0B7F80121102000F07CFA01212020C2
:1005800000F078FA0121080500F054FA04208DF8F3
:100590000300ADF8000001208DF8020069460A480A
:1005A00000F014F818208DF803004FF48050ADF8D7
:1005B000000001208DF802006946024800F006F8AC
:1005C00008BD000000100140001401402DE9F04179
:1005D000024600250026002000230024002791F871
:1005E00003C00CF00F0591F803C00CF0100CBCF127
:1005F000000F03D091F802C04CEA050591F800C045
:10060000BCF1000F31D0146800202BE04FF0010C3A
:100610000CFA00F3B1F800C00CEA03069E4220D1A8
:1006200083004FF00F0C0CFA03F7BC4305FA03FCF0
:100630004CEA040491F803C0BCF1280F06D14FF036
:10064000010C0CFA00FCC2F814C00AE091F803C0D7
:10065000BCF1480F05D14FF0010C0CFA00FCC2F8B8
:1006600010C0401C0828D1D31460B1F800C0BCF100
:10067000FF0F34DD546800202EE000F1080C4FF02D
:10068000010808FA0CF3B1F800C00CEA03069E4218
:1006900021D183004FF00F0C0CFA03F7BC4305FA8D
:1006A00003FC4CEA040491F803C0BCF1280F05D107
:1006B00000F1080C08FA0CF8C2F8148091F803C095
:1006C000BCF1480F07D100F1080C4FF0010808FAFF
:1006D0000CF8C2F81080401C0828CED35460BDE846
:1006E000F08141617047000008B50020009004E0EF
:1006F000684600F08DFB00B10AE00748406841F20F
:100700008831884201DC012000E000200028EFD180
:1007100000BF9DF8000008BD44000020F0B5144A59
:1007200000250024002320E0B1FBF2F6303606F06D
:10073000FF0C2E466D1C00F806C0B1FBF2F602FB62
:1007400016110A26B2FBF6F26E1E865D302E01D11E
:10075000012600E000260CB9012700E000273E40FA
:100760000EB1002500E0641C5B1C0A2BDCD3F0BD3D
:1007700000CA9A3B10B5002449480068A0F1006007
:10078000000B48490860084600683E2808D2084621
:10079000017801208840401EC0434349086003E0BF
:1007A0004FF0004040490860FFF766FE3E49096887
:1007B00008403D490968884203D001203B49086050
:1007C00002E00020394908605EE03948007810B145
:1007D000012857D112E037A000F03AFB45A000F005
:1007E00037FB4AA000F034FB4DA000F031FB5BA0CA
:1007F00000F02EFB01202E49087044E05AA000F0C2
:1008000027FBFFF771FF0446312C05D100F038FAC1
:1008100058A000F01DFB31E0322C2FD158A000F081
:1008200017FB5DA000F014FBFFF7A3FD5B4800F091
:100830006DFC0021594800F05CFC594800F0F2FDC5
:100840000021574800F0E2FD564800F0EBFD002182
:10085000544800F0DBFD002000F096F95248406853
:100860005249086008460068514908604E490868C6
:1008700080F3088800BF4E48006880474DA000F014
:10088000E7FA00BF00BF00BF4D484068B0F5967F53
:1008900001DC012000E00020002896D110BD0000FE
:1008A00018000020080000200C000020100000208C
:1008B000140000200D2A2A2A2A2A2A2A2A2A2A2A29
:1008C0002A2A2A2A2A2A2A2A2A2A2A2A2A2A2A2A88
:1008D0002A2A2A2A2A2A2A2A2A2A2A2A2A2A2A2A78
:1008E0002A2A2A2A2A2A2A2A2A2A2A2A2A2A0D0AA5
:1008F00000000000312EB8FCD0C2D3A6D3C3C7F885
:10090000B3CCD0F2A3BB0D0A00000000322ED4CB32
:10091000D0D0415050B3CCD0F2A1A30D0A000000BA
:100920002A2A2A2A2A2A2A2A2A2A2A2A2A2A2A2A27
:100930002A2A2A2A2A2A2A2A2A2A2A2A2A2A2A2A17
:100940002A2A2A2A2A2A2A2A2A2A2A2A2A2A2A2A07
:100950002A2A2A2A2A2A2A2A2A0D0A00C7EBD1A1E2
:10096000D4F13A0D0A0000002E2E2E2E2E2E0D0A46
:10097000000000000DCFC2D4D8CDEAB3C90A0D00E3
:10098000D5FDD4DAD4CBD0D0D3A6D3C3B3CCD0F258
:100990002E2E2E0D0A000000200D0A00000400403B
:1009A00000500040003801400030000804000020E2
:1009B000000000200DBDF8C8EB4150500A0D0000AA
:1009C0004400002070B5002100230F22C47804B336
:1009D000154C246804F4E064C4F5E064210AC1F114
:1009E0000403CA40447804FA03F184781440214394
:1009F00009010E4C0678A155047804F01F05012466
:100A0000AC4005786D11AD0005F1E025C5F8004159
:100A100009E0047804F01F050124AC40044D067879
:100A2000761145F8264070BD0CED00E000E400E0D2
:100A300080E100E029B1064AD2690243044BDA6141
:100A400004E0034AD2698243014BDA617047000037
:100A50000010024029B1064A12690243044B1A6190
:100A600004E0034A12698243014B1A617047000097
:100A70000010024029B1064A92690243044B9A6170
:100A800004E0034A92698243014B9A617047000077
:100A90000010024029B1064AD2680243044BDA60D2
:100AA00004E0034AD2688243014BDA6070470000D9
:100AB0000010024030B500210022002400232D4DFB
:100AC0006D6805F00C0121B1042905D0082923D156
:100AD00005E0294D056022E0274D05601FE0254D0A
:100AE0006D6805F47012234D6D6805F4803402259D
:100AF00005EB92421CB9214D554305600BE01D4D9D
:100B00006D6805F400351DB11C4D5543056002E0CC
:100B1000194D5543056002E0174D056000BF00BF49
:100B2000144D6D6805F0F0010909154D6B5C056801
:100B3000DD4045600F4D6D6805F4E061090A104D18
:100B40006B5C4568DD4085600A4D6D6805F4605159
:100B5000C90A0B4D6B5C4568DD40C560054D6D688D
:100B600005F44041890B074D6B5CC568B5FBF3F597
:100B7000056130BD0010024000127A0000093D00FE
:100B8000300000204000002001490860704700004C
:100B90003C04424270B505460C4606E0284600F08B
:100BA00037F9012801D1002070BD201EA4F10104F5
:100BB000F4D1401EF8E72DE9F84304460D4690466F
:100BC0000020286041466846FFF7E4FF18B14FF067
:100BD000FF30BDE8F8839DF80000182813D006DC2C
:100BE000012809D0022809D0042820D109E0412891
:100BF0001AD061281BD118E080271BE04FF48067D2
:100C000018E00020E5E741466846FFF7C3FF40B91A
:100C10009DF80000182804D14FF0FF302860002014
:100C2000D7E74FF0FF30D4E700BF0120D1E74FF006
:100C3000FF30CEE700BF9DF800002070012609E0DC
:100C4000A0194146FFF7A6FF10B14FF0FF30C0E7F3
:100C5000701C86B2781D8642F2DB6178A07880F045
:100C6000FF00814202D04FF0FF30B2E72F6000203A
:100C7000AFE710B50446204600F0DAF8002010BDBA
:100C80003EB51DA207CA8DE8070000241DA000F094
:100C9000DFF82B4800F092FC0446002C16DD2948B2
:100CA00000F0D6F8284800F0D3F821466846FFF750
:100CB00035FD26A000F0CCF8684600F0C9F826A063
:100CC00000F0C6F827A000F0C3F814E0601C18B9C3
:100CD0002AA000F0BDF80EE0A01C18B937A000F063
:100CE000B7F808E0E01C18B93BA000F0B1F802E04A
:100CF0003FA000F0ADF83EBD202020202020202085
:100D00002020000057616974696E6720666F722049
:100D10007468652066696C6520746F206265207355
:100D2000656E74202E2E2E20287072657373202716
:100D3000612720746F2061626F7274290A0D0000B0
:100D40005401002014190008540000200A0D2053FB
:100D5000697A653A200000002042797465730D0AB3
:100D6000000000002D2D2D2D2D2D2D2D2D2D2D2D67
:100D70002D2D2D2D2D2D2D0A000000000A0A0D54B9
:100D8000686520696D6167652073697A652069739C
:100D900020686967686572207468616E2074686590
:100DA00020616C6C6F776564207370616365206D82
:100DB000656D6F7279210A0D000000000A0A0D5658
:100DC0006572696669636174696F6E206661696CDA
:100DD0006564210A0D0000000D0A0A41626F7274F9
:100DE000656420627920757365722E0A0D0000001B
:100DF0000A0D4661696C656420746F2072656365D5
:100E0000697665207468652066696C65210A0D0045
:100E100010B504462021054800F052FB20B10348DC
:100E200080882070012010BD0020FCE700500040A9
:100E300010B504462146054800F0BCFB00BF8021E8
:100E4000024800F03DFB0028F9D010BD00500040E2
:100E500010B5044603E02078FFF7EAFF641C207811
:100E60000028F8D110BD10B500F002F810BD000048
:100E70000CB50020019000903348006840F48030A9
:100E80003149086000BF3048006800F4003000902D
:100E90000198401C0190009818B90198B0F5A06F16
:100EA000F1D12948006800F4003010B10120009011
:100EB00001E0002000900098012843D123480068F9
:100EC00040F01000214908600846006820F0030047
:100ED00008600846006840F0020008601A48406850
:100EE000194948600846406848600846406840F430
:100EF000806048600846406820F47C1048600846DE
:100F0000406840F4E81048600846006840F080708F
:100F1000086000BF0C48006800F000700028F9D09D
:100F20000948406820F003000749486008464068C7
:100F300040F00200486000BF0348406800F00C0029
:100F40000828F9D10CBD000000100240002002402A
:100F500070B502460C460021002500231078302889
:100F600043D15078782802D0507858283DD19078D5
:100F700008B9002070BD022130E0505C10B9236038
:100F800001252DE0505C412802DB505C46280BDD3A
:100F9000505C612802DB505C662805DD505C30281F
:100FA00019DB505C392816DC505C302805DB505CBE
:100FB000392802DC505C30380AE0505C412805DBFF
:100FC000505C462802DC505C373801E0505C5738F2
:100FD00000EB031301E0002502E0491C0B29CCD3F0
:100FE00000BF0B2934D3002532E000212AE0505CF9
:100FF00010B92360012527E0505C6B2802D0505CBB
:101000004B2804D119B19B02236001251CE0505CE0
:101010006D2802D0505C4D2804D119B11B05236006
:10102000012511E0505C302809DB505C392806DCD2
:10103000505C303803EB830600EB460301E00025EB
:1010400002E0491C0B29D2D300BF0B2900D3002595
:1010500028468FE710B51348006840F00100114999
:10106000086008464068104908400E494860084634
:1010700000680E4908400B4908600846006820F4E3
:10108000802008600846406820F4FE0048604FF465
:101090001F008860FFF7E7FE4FF00060044908601A
:1010A00010BD0000001002400000FFF8FFFFF6FE38
:1010B00008ED00E010B500240121880700F01AF9BE
:1010C000012810D10121800700F010F800BF08E0CE
:1010D000054850F82400401C034941F82400601CD6
:1010E00084B2042CF4DB10BD44000020CA43028209
:1010F000704721B1028842F00102028004E00288B8
:101100004FF6FE731A4002807047000010B5044687
:101110006848844208D10121C014FFF7BBFC0021BC
:10112000E014FFF7B7FCC4E0B4F1804F08D101210F
:101130000846FFF78FFC00210120FFF78BFCB8E089
:101140005D48844208D101210220FFF783FC002181
:101150000220FFF77FFCACE05848844208D101210F
:101160000420FFF777FC00210420FFF773FCA0E0C8
:101170005348844208D101210820FFF76BFC00216D
:101180000820FFF767FC94E04E48844208D1012113
:101190001020FFF75FFC00211020FFF75BFC88E0C8
:1011A0004948844208D101212020FFF753FC002147
:1011B0002020FFF74FFC7CE04448844208D1012105
:1011C0004014FFF767FC00216014FFF763FC70E038
:1011D0003F48844209D10121C804FFF75BFC00218C
:1011E0004FF40020FFF756FC63E03A48844209D1EF
:1011F00001210805FFF74EFC00214FF48010FFF796
:1012000049FC56E03448844209D101214805FFF7E2
:1012100041FC00214FF40010FFF73CFC49E02F484F
:10122000844208D101214020FFF714FC0021402016
:10123000FFF710FC3DE02A48844208D101218020BC
:10124000FFF708FC00218020FFF704FC31E025486F
:10125000844208D101218015FFF7FCFB0021A01575
:10126000FFF7F8FB25E02048844209D1012108045A
:10127000FFF710FC00214FF48030FFF70BFC18E063
:101280001A48844209D101214804FFF703FC0021D8
:101290004FF40030FFF7FEFB0BE01548844208D105
:1012A00001218804FFF7F6FB00214FF48020FFF7AF
:1012B000F1FB10BD002C014000040040000800407C
:1012C000000C0040001000400014004000340140B9
:1012D000004C014000500140005401400018004003
:1012E000001C00400020004000400140004401403C
:1012F0000048014030B50246002000230024158A32
:1013000005EA0103958905EA010413B10CB1012036
:1013100000E0002030BD1AB183890B43838102E0D5
:1013200083898B43838170478184704700220288C0
:101330001D4B98420ED01D4B98420BD0B0F1804F00
:1013400008D01B4B984205D01A4B984202D01A4B3A
:10135000984204D14FF68F731A404B881A43174BAB
:10136000984207D0164B984204D04FF6FF431A40DC
:10137000CB881A4302808B8883850B8803850A4BB0
:1013800098420BD0094B984208D00E4B984205D09A
:101390000D4B984202D00D4B984201D10B7A038637
:1013A0000123838270470000002C0140003401407B
:1013B0000004004000080040000C00400010004005
:1013C000001400400040014000440140004801403A
:1013D0001FB54FF4E13000900020ADF80400ADF8E7
:1013E0000600ADF80800ADF80C000C20ADF80A00BE
:1013F000FFF7AAF86946044800F070F80121024896
:1014000000F004F81FBD00000050004021B18289A7
:1014100042F40052828104E082894DF6FF731A4043
:101420008281704710B504462048844209D10121C9
:101430008803FFF72FFB00214FF48040FFF72AFBC2
:1014400032E01B48844209D101214804FFF702FB26
:1014500000214FF40030FFF7FDFA25E015488442E3
:1014600009D101218804FFF7F5FA00214FF480200B
:10147000FFF7F0FA18E01048844209D10121C804AE
:10148000FFF7E8FA00214FF40020FFF7E3FA0BE042
:101490000A48844208D101210805FFF7DBFA002140
:1014A0004FF48010FFF7D6FA10BD0000003801405D
:1014B0000044004000480040004C00400050004004
:1014C00002460020B1F5007F00D100BF13880B4019
:1014D0000BB1012000E00020704700002DE9F0472B
:1014E00086B005460E460024A24600BFA14600274E
:1014F000B08900B100BF2F462C8A4CF6FF70044023
:10150000F08804432C82AC894EF6F3100440B08876
:1015100031890843718908430443AC81AC8A4FF692
:10152000FF400440B0890443AC8201A8FFF7C2FA2F
:101530001F48874202D1DDF810A001E0DDF80CA0C1
:10154000A88900F4004040B10AEBCA0000EB0A1081
:1015500031684900B0FBF1F807E00AEBCA0000EB84
:101560000A1031688900B0FBF1F86420B8FBF0F094
:1015700004012009642101FB1089A88900F40040BE
:1015800040B1322000EBC900B0FBF1F000F00700E1
:10159000044308E0322000EB09106421B0FBF1F0B5
:1015A00000F00F0004432C8106B0BDE8F087000076
:1015B00000380140C1F30802828070472DE9F04FE6
:1015C000ADF22C4D0646002001908B488B490860F7
:1015D0004FF0000B4FF0000A0020029000BF0027E0
:1015E00000200390B04600BF4FF4801204A909A860
:1015F000FFF7E1FA10B101287ED1D0E04FF0000AE8
:101600000498B0F1FF3F01D070B907E00620FFF762
:1016100030FB00200DF22C4DBDE8F08F0620FFF7C7
:1016200028FB01200390B8E09DF82500F9B288421C
:1016300003D01520FFF71DFBAFE0002F6ED19DF802
:101640002700002863D000250DF1270405E014F8D9
:10165000012B28466D1C6A490A54207808B1FF2DD9
:10166000F5DD002228466D1C65490A540025641CDE
:1016700005E014F8012B28466D1C05A90A542078B2
:10168000202801D0102DF4DB002228466D1C05A96E
:101690000A5401A905A8FFF75BFC0198B0F5802F5B
:1016A00008DB1820FFF7E5FA1820FFF7E2FA4FF001
:1016B000FF30AFE70198FEF7E5FE524908600020D1
:1016C0005149086010E04D490968504A12884E4B54
:1016D0001B6802FB0310FEF78FFE4D4908704A4855
:1016E0000068401C48490860474800684549096847
:1016F000884205D2464800E05AE000780428E2D04B
:101700000620FFF7B6FA4320FFF7B3FA42E00620BF
:10171000FFF7AFFA0120039083463EE00DF1270169
:101720004046049AFEF772FD3A4806604FF0000901
:1017300023E038480068016830480068FEF7AEFED4
:101740002E4800680068334909680968884208D053
:101750001820FFF78EFA1820FFF78BFA6FF00100C0
:1017600058E726480068001D244908602948006899
:10177000001D2849086009F104090498814506DA2A
:101780001D49019808441D4909688842D1D806209E
:10179000FFF76FFA7F1C0120029000BF1CE01820A9
:1017A000FFF767FA1820FFF764FA6FF0020031E7DD
:1017B0000298002801DD0AF1010ABAF1050F07DDE0
:1017C0001820FFF756FA1820FFF753FA002021E7F8
:1017D0004320FFF74EFA00BF00BF039800283FF4F4
:1017E00003AF00BF00BFBBF1000F3FF4F8AE00BF76
:1017F00000BF01980EE7000000300008180000202C
:101800005400002024000020200000201C000020A4
:10181000280000202C00002000BFFFF71BFCFEF773
:1018200093FEFEF771FEFFF7D3FDFEF7AEFD20A09D
:10183000FFF70EFBFEF79EFF24480068244908408E
:10184000B0F1005F2ED123A0FFF702FBFEF791FD60
:101850002648FFF75BFC00212448FFF74AFC244898
:10186000FFF7E0FD00212248FFF7D0FD2148FFF7F8
:10187000D9FD00211F48FFF7C9FD0020FFF784F9BB
:1018800000BF124840681C490860084600681B49B0
:1018900008600E49086880F3088800BF1748006890
:1018A000804702E016A0FFF7D3FA00BFFEE7000072
:1018B000676F20696E746F2074686520626F6F7443
:1018C0006C6F616465720D0A000000000030000852
:1018D0000000FE2F45786563757465207573657229
:1018E0002050726F6772616D0D0A000000040040A5
:1018F000005000400038014004000020000000209B
:101900006E6F20757365722050726F6772616D0D16
:101910000A0A00000A0A0D2050726F6772616D6D2D
:10192000696E6720436F6D706C65746564205375D4
:10193000636365737366756C6C79210A0D2D2D2DAB
:101940002D2D2D2D2D2D2D2D2D2D2D2D2D2D2D2DC7
:101950002D2D2D2D2D2D2D2D2D2D2D2D2D0D0A2007
:101960004E616D653A2000008819000800000020D3
:10197000440000006C010008CC190008440000205D
:10198000740B000088010008000000000000000047
:101990000000000000000000000000000000000047
:1019A00000300008000800000000000000000000F7
:1019B0000400000000000000000000000102030419
:0C19C000010203040607080902040608DF
:0400000508000131BD
:00000001FF
